{
  "contractName": "Factory",
  "abi": [
    {
      "inputs": [],
      "stateMutability": "nonpayable",
      "type": "constructor"
    },
    {
      "inputs": [
        {
          "internalType": "address",
          "name": "_securityToken",
          "type": "address"
        }
      ],
      "name": "addSecurityToken",
      "outputs": [],
      "stateMutability": "nonpayable",
      "type": "function"
    },
    {
      "inputs": [
        {
          "internalType": "uint256",
          "name": "limit",
          "type": "uint256"
        }
      ],
      "name": "listSecurityTokens",
      "outputs": [
        {
          "internalType": "address[]",
          "name": "",
          "type": "address[]"
        }
      ],
      "stateMutability": "view",
      "type": "function"
    },
    {
      "inputs": [],
      "name": "getCountSecurityToken",
      "outputs": [
        {
          "internalType": "uint256",
          "name": "",
          "type": "uint256"
        }
      ],
      "stateMutability": "view",
      "type": "function"
    }
  ],
  "bytecode": "0x60a060405234801561000f575f80fd5b503360805260805161031b61002c5f395f610160015261031b5ff3fe608060405234801561000f575f80fd5b506004361061003f575f3560e01c80630fe78ee41461004357806341aad15114610059578063598862af14610079575b5f80fd5b6001546040519081526020015b60405180910390f35b61006c610067366004610209565b61008e565b6040516100509190610220565b61008c61008736600461026c565b61015e565b005b60605f60015483118061009f575082155b6100a957826100ad565b6001545b90505f816001600160401b038111156100c8576100c8610299565b6040519080825280602002602001820160405280156100f1578160200160208202803683370190505b5090505f5b82811015610156575f8181526020819052604090205482516001600160a01b039091169083908390811061012c5761012c6102ad565b6001600160a01b03909216602092830291909101909101528061014e816102c1565b9150506100f6565b509392505050565b7f00000000000000000000000000000000000000000000000000000000000000006001600160a01b031633146101ca5760405162461bcd60e51b815260206004820152600d60248201526c2737ba102a34329027bbb732b960991b604482015260640160405180910390fd5b600180545f90815260208190526040812080546001600160a01b0319166001600160a01b03851617905581549190610201836102c1565b919050555050565b5f60208284031215610219575f80fd5b5035919050565b602080825282518282018190525f9190848201906040850190845b818110156102605783516001600160a01b03168352928401929184019160010161023b565b50909695505050505050565b5f6020828403121561027c575f80fd5b81356001600160a01b0381168114610292575f80fd5b9392505050565b634e487b7160e01b5f52604160045260245ffd5b634e487b7160e01b5f52603260045260245ffd5b5f600182016102de57634e487b7160e01b5f52601160045260245ffd5b506001019056fea26469706673582212202e7c032fe525fe5b0bff799357a4b2ab3a91e0d61505395eda73c396e1466cf664736f6c63430008150033",
  "immutableReferences": {
    "1146": [
      {
        "length": 32,
        "start": 352
      }
    ]
  },
  "source": "// SPDX-License-Identifier: MIT\n\npragma solidity ^0.8.0;\n\n\ncontract Factory {\n\n    mapping(uint256 => address) securityToken;\n    uint256 internal countSecurityToken;\n    address immutable OWNER;\n\n    constructor() {\n        OWNER = msg.sender;\n    }\n\n    function addSecurityToken(address _securityToken) external {\n        require(OWNER == msg.sender,\"Not The Owner\");\n        securityToken[countSecurityToken] = _securityToken;\n        countSecurityToken++;\n    }\n\n    function listSecurityTokens(uint256 limit) external view returns(address[] memory){\n        uint256 count = limit > countSecurityToken || limit == 0 ? countSecurityToken : limit;\n        address[] memory result = new address[](count);\n        for (uint256 i = 0; i < count; i++) {\n            result[i] = securityToken[i];\n        }\n        return result;\n    }\n\n    function getCountSecurityToken() external view returns(uint256){\n        return countSecurityToken;\n    }\n}",
  "sourcePath": "/home/solid-solution/Documents/block-us/block-us-contract/contracts/factory/Factory.sol",
  "compiler": {
    "name": "solc",
    "version": "0.8.21+commit.d9974bed.Emscripten.clang"
  },
  "schemaVersion": "3.4.10",
  "updatedAt": "2023-09-19T15:20:09.537Z",
  "devdoc": {
    "kind": "dev",
    "methods": {},
    "version": 1
  },
  "userdoc": {
    "kind": "user",
    "methods": {},
    "version": 1
  }
}