{
  "contractName": "ReaderRole",
  "abi": [
    {
      "inputs": [
        {
          "internalType": "address",
          "name": "sender",
          "type": "address"
        }
      ],
      "name": "NotReader",
      "type": "error"
    },
    {
      "anonymous": false,
      "inputs": [
        {
          "indexed": true,
          "internalType": "address",
          "name": "previousOwner",
          "type": "address"
        },
        {
          "indexed": true,
          "internalType": "address",
          "name": "newOwner",
          "type": "address"
        }
      ],
      "name": "OwnershipTransferred",
      "type": "event"
    },
    {
      "anonymous": false,
      "inputs": [
        {
          "indexed": true,
          "internalType": "address",
          "name": "_reader",
          "type": "address"
        }
      ],
      "name": "ReaderAdded",
      "type": "event"
    },
    {
      "anonymous": false,
      "inputs": [
        {
          "indexed": true,
          "internalType": "address",
          "name": "_reader",
          "type": "address"
        }
      ],
      "name": "ReaderRemoved",
      "type": "event"
    },
    {
      "inputs": [],
      "name": "owner",
      "outputs": [
        {
          "internalType": "address",
          "name": "",
          "type": "address"
        }
      ],
      "stateMutability": "view",
      "type": "function"
    },
    {
      "inputs": [],
      "name": "renounceOwnership",
      "outputs": [],
      "stateMutability": "nonpayable",
      "type": "function"
    },
    {
      "inputs": [
        {
          "internalType": "address",
          "name": "newOwner",
          "type": "address"
        }
      ],
      "name": "transferOwnership",
      "outputs": [],
      "stateMutability": "nonpayable",
      "type": "function"
    },
    {
      "inputs": [
        {
          "internalType": "address",
          "name": "_reader",
          "type": "address"
        }
      ],
      "name": "isReader",
      "outputs": [
        {
          "internalType": "bool",
          "name": "",
          "type": "bool"
        }
      ],
      "stateMutability": "view",
      "type": "function"
    },
    {
      "inputs": [
        {
          "internalType": "address",
          "name": "_reader",
          "type": "address"
        }
      ],
      "name": "addReader",
      "outputs": [],
      "stateMutability": "nonpayable",
      "type": "function"
    },
    {
      "inputs": [
        {
          "internalType": "address",
          "name": "_reader",
          "type": "address"
        }
      ],
      "name": "removeReader",
      "outputs": [],
      "stateMutability": "nonpayable",
      "type": "function"
    }
  ],
  "bytecode": "0x608060405234801561000f575f80fd5b506100193361001e565b61006d565b5f80546001600160a01b038381166001600160a01b0319831681178455604051919092169283917f8be0079c531659141344cd1fd0a4f28419497f9722a3daafe3b4186f6b6457e09190a35050565b6104c08061007a5f395ff3fe608060405234801561000f575f80fd5b5060043610610060575f3560e01c806338d65d111461006457806369a7ddf714610079578063715018a6146100a15780638da5cb5b146100a9578063afd8b1d1146100c9578063f2fde38b146100dc575b5f80fd5b61007761007236600461045d565b6100ef565b005b61008c61008736600461045d565b610138565b60405190151581526020015b60405180910390f35b61007761014a565b6100b161015d565b6040516001600160a01b039091168152602001610098565b6100776100d736600461045d565b61016b565b6100776100ea36600461045d565b6101b4565b6100f7610232565b610102600182610291565b6040516001600160a01b038216907fe933431644458f1217f9e93d3e000e03c9bbbe55761046d0985c2e4d157bcbaa905f90a250565b5f610144600183610312565b92915050565b610152610232565b61015b5f610393565b565b5f546001600160a01b031690565b610173610232565b61017e6001826103e2565b6040516001600160a01b038216907fb7724d890d2888af5a3fc456edb667e2c82c4441449ebcac301c618759e4f86d905f90a250565b6101bc610232565b6001600160a01b0381166102265760405162461bcd60e51b815260206004820152602660248201527f4f776e61626c653a206e6577206f776e657220697320746865207a65726f206160448201526564647265737360d01b60648201526084015b60405180910390fd5b61022f81610393565b50565b3361023b61015d565b6001600160a01b03161461015b5760405162461bcd60e51b815260206004820181905260248201527f4f776e61626c653a2063616c6c6572206973206e6f7420746865206f776e6572604482015260640161021d565b61029b8282610312565b6102f15760405162461bcd60e51b815260206004820152602160248201527f526f6c65733a206163636f756e7420646f6573206e6f74206861766520726f6c6044820152606560f81b606482015260840161021d565b6001600160a01b03165f90815260209190915260409020805460ff19169055565b5f6001600160a01b0382166103745760405162461bcd60e51b815260206004820152602260248201527f526f6c65733a206163636f756e7420697320746865207a65726f206164647265604482015261737360f01b606482015260840161021d565b506001600160a01b03165f908152602091909152604090205460ff1690565b5f80546001600160a01b038381166001600160a01b0319831681178455604051919092169283917f8be0079c531659141344cd1fd0a4f28419497f9722a3daafe3b4186f6b6457e09190a35050565b6103ec8282610312565b156104395760405162461bcd60e51b815260206004820152601f60248201527f526f6c65733a206163636f756e7420616c72656164792068617320726f6c6500604482015260640161021d565b6001600160a01b03165f90815260209190915260409020805460ff19166001179055565b5f6020828403121561046d575f80fd5b81356001600160a01b0381168114610483575f80fd5b939250505056fea2646970667358221220828b1d7b9f256de1a901a3ca647dd2bd13d4e7d50cb7078fadf600cbfd7edfc064736f6c63430008150033",
  "immutableReferences": {},
  "source": "// SPDX-License-Identifier: GPL-3.0\n\npragma solidity ^0.8.0;\n\nimport \"@openzeppelin/contracts/access/Ownable.sol\";\n\nimport \"./Roles.sol\";\n\ncontract ReaderRole is Ownable {\n    using Roles for Roles.Role;\n\n    event ReaderAdded(address indexed _reader);\n    event ReaderRemoved(address indexed _reader);\n    \n    error NotReader(address sender);\n\n    Roles.Role private _readers;\n\n    modifier onlyReader() {\n        if(!isReader(_msgSender()) && owner() != _msgSender())\n            revert NotReader({ sender: _msgSender()});\n        _;\n    }\n\n    function isReader(address _reader) public view returns (bool) {\n        return _readers.has(_reader);\n    }\n\n    function addReader(address _reader) public onlyOwner {\n        _readers.add(_reader);\n        emit ReaderAdded(_reader);\n    }\n\n    function removeReader(address _reader) public onlyOwner {\n        _readers.remove(_reader);\n        emit ReaderRemoved(_reader);\n    }\n}\n",
  "sourcePath": "/home/solid-solution/Documents/block-us/block-us-contract/contracts/roles/ReaderRole.sol",
  "compiler": {
    "name": "solc",
    "version": "0.8.21+commit.d9974bed.Emscripten.clang"
  },
  "schemaVersion": "3.4.10",
  "updatedAt": "2023-09-19T15:20:09.603Z",
  "devdoc": {
    "kind": "dev",
    "methods": {
      "owner()": {
        "details": "Returns the address of the current owner."
      },
      "renounceOwnership()": {
        "details": "Leaves the contract without owner. It will not be possible to call `onlyOwner` functions anymore. Can only be called by the current owner. NOTE: Renouncing ownership will leave the contract without an owner, thereby removing any functionality that is only available to the owner."
      },
      "transferOwnership(address)": {
        "details": "Transfers ownership of the contract to a new account (`newOwner`). Can only be called by the current owner."
      }
    },
    "version": 1
  },
  "userdoc": {
    "kind": "user",
    "methods": {},
    "version": 1
  }
}