{
  "contractName": "StorageToken",
  "abi": [
    {
      "inputs": [
        {
          "internalType": "uint256",
          "name": "_pricePerToken",
          "type": "uint256"
        }
      ],
      "stateMutability": "nonpayable",
      "type": "constructor"
    },
    {
      "inputs": [
        {
          "internalType": "address",
          "name": "account",
          "type": "address"
        },
        {
          "internalType": "uint256",
          "name": "accountBalance",
          "type": "uint256"
        },
        {
          "internalType": "uint256",
          "name": "amount",
          "type": "uint256"
        }
      ],
      "name": "BurnAmountExceedsBalance",
      "type": "error"
    },
    {
      "inputs": [
        {
          "internalType": "address",
          "name": "account",
          "type": "address"
        }
      ],
      "name": "BurnFromZeroAddress",
      "type": "error"
    },
    {
      "inputs": [
        {
          "internalType": "address",
          "name": "account",
          "type": "address"
        },
        {
          "internalType": "uint256",
          "name": "previousBalance",
          "type": "uint256"
        },
        {
          "internalType": "uint256",
          "name": "currentBalance",
          "type": "uint256"
        },
        {
          "internalType": "uint256",
          "name": "amount",
          "type": "uint256"
        }
      ],
      "name": "MintDoesNotWork",
      "type": "error"
    },
    {
      "inputs": [
        {
          "internalType": "address",
          "name": "account",
          "type": "address"
        }
      ],
      "name": "MintFromZeroAddress",
      "type": "error"
    },
    {
      "inputs": [
        {
          "internalType": "address",
          "name": "sender",
          "type": "address"
        },
        {
          "internalType": "bytes32",
          "name": "role",
          "type": "bytes32"
        }
      ],
      "name": "NotTheOwner",
      "type": "error"
    },
    {
      "inputs": [
        {
          "internalType": "uint256",
          "name": "fromBalance",
          "type": "uint256"
        },
        {
          "internalType": "address",
          "name": "from",
          "type": "address"
        },
        {
          "internalType": "uint256",
          "name": "amount",
          "type": "uint256"
        }
      ],
      "name": "TransferAmountExceedsBalance",
      "type": "error"
    },
    {
      "inputs": [
        {
          "internalType": "address",
          "name": "from",
          "type": "address"
        }
      ],
      "name": "TransferFromZeroAddress",
      "type": "error"
    },
    {
      "inputs": [
        {
          "internalType": "address",
          "name": "to",
          "type": "address"
        }
      ],
      "name": "TransferToZeroAddress",
      "type": "error"
    },
    {
      "anonymous": false,
      "inputs": [
        {
          "indexed": true,
          "internalType": "address",
          "name": "sender",
          "type": "address"
        },
        {
          "indexed": true,
          "internalType": "uint256",
          "name": "paused",
          "type": "uint256"
        }
      ],
      "name": "Paused",
      "type": "event"
    },
    {
      "anonymous": false,
      "inputs": [
        {
          "indexed": false,
          "internalType": "string",
          "name": "eventType",
          "type": "string"
        },
        {
          "indexed": true,
          "internalType": "address",
          "name": "from",
          "type": "address"
        },
        {
          "indexed": true,
          "internalType": "address",
          "name": "to",
          "type": "address"
        },
        {
          "indexed": false,
          "internalType": "uint256",
          "name": "value",
          "type": "uint256"
        }
      ],
      "name": "Transfer",
      "type": "event"
    },
    {
      "anonymous": false,
      "inputs": [
        {
          "indexed": true,
          "internalType": "address",
          "name": "oldAccount",
          "type": "address"
        },
        {
          "indexed": true,
          "internalType": "address",
          "name": "newAccount",
          "type": "address"
        }
      ],
      "name": "TransferOwnership",
      "type": "event"
    },
    {
      "inputs": [],
      "name": "_now",
      "outputs": [
        {
          "internalType": "uint256",
          "name": "",
          "type": "uint256"
        }
      ],
      "stateMutability": "view",
      "type": "function"
    },
    {
      "inputs": [
        {
          "internalType": "string",
          "name": "str1",
          "type": "string"
        },
        {
          "internalType": "string",
          "name": "str2",
          "type": "string"
        }
      ],
      "name": "compare",
      "outputs": [
        {
          "internalType": "bool",
          "name": "",
          "type": "bool"
        }
      ],
      "stateMutability": "pure",
      "type": "function"
    }
  ],
  "bytecode": "0x60a060405234801561000f575f80fd5b5060405161029638038061029683398101604081905261002e91610036565b60805261004d565b5f60208284031215610046575f80fd5b5051919050565b6080516102346100625f395f50506102345ff3fe608060405234801561000f575f80fd5b5060043610610034575f3560e01c80633a96fdd714610038578063b3bb8cd414610060575b5f80fd5b61004b610046366004610173565b61006e565b60405190151581526020015b60405180910390f35b604051428152602001610057565b5f815183511461007f57505f6100d1565b8160405160200161009091906101d2565b60405160208183030381529060405280519060200120836040516020016100b791906101d2565b604051602081830303815290604052805190602001201490505b92915050565b634e487b7160e01b5f52604160045260245ffd5b5f82601f8301126100fa575f80fd5b81356001600160401b0380821115610114576101146100d7565b604051601f8301601f19908116603f0116810190828211818310171561013c5761013c6100d7565b81604052838152866020858801011115610154575f80fd5b836020870160208301375f602085830101528094505050505092915050565b5f8060408385031215610184575f80fd5b82356001600160401b038082111561019a575f80fd5b6101a6868387016100eb565b935060208501359150808211156101bb575f80fd5b506101c8858286016100eb565b9150509250929050565b5f82515f5b818110156101f157602081860181015185830152016101d7565b505f92019182525091905056fea2646970667358221220d9004c2849e01181822353b44fd143f94aafd711f6c755feefe5cebcea19f06964736f6c63430008150033",
  "immutableReferences": {},
  "source": "// SPDX-License-Identifier: MIT\n\npragma solidity ^0.8.0;\n\nimport \"../library/TokenLibrary.sol\";\n\ncontract StorageToken {\n\n    uint256 internal constant oneDay = 86400;\n    uint256 internal immutable pricePerToken;\n    uint256 internal paused;\n    uint256 internal lastWithdraw;\n\n    uint256 internal amountRequest;\n    uint256 internal acceptedRequest;\n    uint256 internal refusedRequest;\n\n    address internal OWNER;\n\n    TokenLibrary.Rules internal rules;\n\n    mapping(uint256 => TokenLibrary.Transfer) internal _transfers;\n\n    mapping(address => string) internal hasVoted;\n\n    uint32 internal _transfersCount;\n\n    string internal constant TOKEN_VERSION = \"0.0.1\";\n    string internal messageRequest;\n    \n    error NotTheOwner(address sender, bytes32 role);\n    error TransferFromZeroAddress(address from);\n    error TransferToZeroAddress(address to);\n    error TransferAmountExceedsBalance( uint256 fromBalance, address from, uint256 amount);\n    error MintFromZeroAddress(address account);\n    error MintDoesNotWork(address account, uint256 previousBalance, uint256 currentBalance, uint256 amount);\n    error BurnFromZeroAddress(address account);\n    error BurnAmountExceedsBalance(address account, uint256 accountBalance, uint256 amount);\n\n    event TransferOwnership(address indexed oldAccount, address indexed newAccount);\n    event Transfer(string eventType, address indexed from, address indexed to, uint256 value);\n    event Paused(address indexed sender, uint256 indexed paused);\n    \n    function _now() public view returns (uint256) {\n        return block.timestamp;\n    }\n\n    function compare(string memory str1, string memory str2) public pure returns (bool) {\n        if (bytes(str1).length != bytes(str2).length) {\n            return false;\n        }\n        return keccak256(abi.encodePacked(str1)) == keccak256(abi.encodePacked(str2));\n    }\n\n    constructor(\n        uint256 _pricePerToken\n    ) {\n        pricePerToken = _pricePerToken;\n    }\n}",
  "sourcePath": "/home/solid-solution/Documents/block-us/block-us-contract/contracts/immutable/StorageToken.sol",
  "compiler": {
    "name": "solc",
    "version": "0.8.21+commit.d9974bed.Emscripten.clang"
  },
  "schemaVersion": "3.4.10",
  "updatedAt": "2023-09-19T15:20:09.570Z",
  "devdoc": {
    "kind": "dev",
    "methods": {},
    "version": 1
  },
  "userdoc": {
    "kind": "user",
    "methods": {},
    "version": 1
  }
}